:100000000C942A000C943F000C943F000C943F0089
:100010000C943F000C943F000C943F000C943F0064
:100020000C943F000C943F000C943F000C943F0054
:100030000C943F000C943F000C943F000C943F0044
:100040000C943F000C943F000C943F000C943F0034
:100050000C943F0011241FBECFE5D8E0DEBFCDBF1A
:1000600010E0A0E6B0E0E6E9F1E002C005900D92F4
:10007000AA36B107D9F70E9441000C94C9000C942C
:100080000000CF93DF93CDB7DEB72A970FB6F89471
:10009000DEBF0FBECDBF87B38FEF87BB98B388BBE2
:1000A00088B3887E88BB8AB31ABA8AE0E0E6F0E0BB
:1000B000DE01119601900D928A95E1F749E050E03A
:1000C00020E030E088B3806288BB88B38F7B88BB38
:1000D00088B3887E88BB98B3E1E0F0E0EC0FFD1FA9
:1000E000E20FF31F8081892B88BB89B3982F917011
:1000F00080FF29C06FEF73EC89E061507040804051
:10010000E1F700C000009130F1F42F5F3F4F2A303B
:10011000310564F04F5F5F4F4A3051051CF420E019
:1001200030E004C040E050E020E030E088B3887E5A
:1001300088BB98B3E1E0F0E0EC0FFD1FE20FF31F86
:100140008081892B88BB9FEF66E771E0915060400A
:100150007040E1F700C0000088B3806488BB88B3BA
:100160008F7D88BB88B3887E88BB98B3E1E0F0E0E0
:10017000EC0FFD1FE40FF51F8081892B88BB8FEFEB
:1001800096E761E0815090406040E1F700C00000D8
:0601900099CFF894FFCFA7
:0A0196000001020304050607101122
:00000001FF
