:100000000C942A000C9447000C9447000C94470071
:100010000C9447000C94B8030C9447000C944700D0
:100020000C9447000C9447000C9447000C94470034
:100030000C9447000C9447000C9447000C94470024
:100040000C9447000C9447000C9447000C94470014
:100050000C94470011241FBECFE5D8E0DEBFCDBF12
:1000600010E0A0E6B0E0EAEDF2E102C005900D92EA
:10007000A43CB107D9F720E0A4ECB0E001C01D9288
:10008000A03DB207E1F70E9431040C946B090C9477
:10009000000041E060E083E00E94130641E061E07F
:1000A00083E00E94130641E062E083E00E941306B1
:1000B00041E063E083E00E94130640E065E083E0F6
:1000C0000E94130640E066E083E00E94130640E0D1
:1000D00067E083E00E94130641E065E083E00E9450
:1000E000780641E066E083E00E94780641E067E040
:1000F00083E00E9478060895EF92FF920F931F937A
:10010000CF93DF93CDB7DEB72C970FB6F894DEBF51
:100110000FBECDBF8CE0E5E6F0E0DE011196019068
:100120000D928A95E1F70F2EF8ECEF2EF02DF12CC1
:100130003AC041E060E083E00E94380641E061E0BF
:1001400083E00E94380641E062E083E00E943806C6
:1001500041E063E083E00E94380640E06F2D83E0D9
:100160000E94380610E01AC065E0610F83E00E942B
:100170005D06082F811111C08F2D90E0FC01EE0F5C
:10018000FF1FE80FF91F81E090E08C0F9D1FE80F23
:10019000F91FE10FF11DE08003C01F5F133020F352
:1001A000002321F0F39493E09F1518F68E2D2C96E2
:1001B0000FB6F894DEBF0FBECDBFDF91CF911F9178
:1001C0000F91FF90EF9008950E947C0091E0909332
:1001D000C500883CD1F18A3239F48091C40088236B
:1001E000B1F11092C4000895833299F19091C80042
:1001F000923069F407C0E92FF0E0E753FF4F108217
:100200009F5F01C090E09230B0F31092C800E0917F
:10021000C800F0E0E753FF4F808389EC90E00E9434
:1002200007098093C4000E94EC022FEF83EC99E051
:10023000215080409040E1F700C000008091C8004C
:100240008F5F8093C8008AEF08958AEF08958AEF40
:10025000089580EF0895CF93DF93EBE7F0E0D1812D
:10026000C08141E06D2F8C2F0E9438068FE99FE0FE
:100270000197F1F700C0000040E06D2F8C2F0E9425
:1002800038068FE99FE00197F1F700C00000DF9189
:10029000CF9108951F93CF93DF93182F682F629506
:1002A0006F7080E00E949D06EBE7F0E0D381C28191
:1002B00040E06D2F8C2F0E9438060E942B01612F89
:1002C00080E00E949D0640E06D2F8C2F0E94380632
:1002D0000E942B018FEC97E00197F1F700C000001E
:1002E000DF91CF911F9108950F931F93CF93DF93C9
:1002F0002FEF81EE94E0215080409040E1F700C064
:100300000000C0E00AC0EC2FF0E0E558FF4F41E0EC
:10031000668180E00E941306CF5FC430A0F3CBE774
:10032000D0E041E0698188810E9413060D811C8123
:1003300041E0602F812F0E94130641E06B818A818A
:100340000E94130640E0602F812F0E94380682E051
:100350000E944A018FE19EE40197F1F700C000007E
:1003600088E20E944A018FEC97E00197F1F700C004
:1003700000008CE00E944A018FEC97E00197F1F7B2
:1003800000C0000081E00E944A018FE19EE40197D5
:10039000F1F700C0000086E00E944A018FEC97E070
:1003A0000197F1F700C00000DF91CF911F910F91ED
:1003B00008951F93CF93DF93182F682F6595659548
:1003C0006595659580E00E949D06EBE7F0E0D3819E
:1003D000C28141E06D2F8C2F0E9438060E942B01B4
:1003E000612F80E00E949D0641E06D2F8C2F0E94BE
:1003F00038060E942B018FEC97E00197F1F700C0BF
:100400000000DF91CF911F910895CF93DF93EC010E
:100410000CC00E94D9012FE788E391E02150804071
:100420009040E1F700C00000219688818111F1CF52
:10043000DF91CF910895813021F48CE10E944A012F
:1004400005C0811103C088E10E944A018FEC97E04A
:100450000197F1F700C0000008959FEF980F9230C8
:1004600070F4613170F4662371F0813019F48FE714
:10047000860F0CC0823049F48FEB860F07C080E8EE
:1004800005C080E803C080E801C080E00E944A0106
:100490008FEC97E00197F1F700C000000895CF932B
:1004A000DF93CDB7DEB76C970FB6F894DEBF0FBE03
:1004B000CDBF81E00E944A0187E0E5E8F0E0DE017F
:1004C000119601900D928A95E1F787E0ECE8F0E053
:1004D000DE01189601900D928A95E1F78EE0E3E92E
:1004E000F0E0DE011F9601900D928A95E1F761E040
:1004F00081E00E942D02CE0101960E9405026AE071
:1005000081E00E942D02CE0108960E94050261E062
:1005100082E00E942D02CE010F960E9405026C9689
:100520000FB6F894DEBF0FBECDBFDF91CF91089517
:100530000F931F93CF93DF93CDB7DEB728970FB6F6
:10054000F894DEBF0FBECDBF88E0E1EAF0E0DE0147
:10055000119601900D928A95E1F76AE081E00E9480
:100560002D028CE00E944A01CE0101960E940502F4
:1005700000E023C02FEF80E792E0215080409040C0
:10058000E1F700C0000080E00E941B021F5F01C075
:1005900010E0193078F310E00DC02FEF80E792E003
:1005A000215080409040E1F700C0000081E00E94AF
:1005B0001B021F5F193088F30F5F033048F30E945E
:1005C0004F0228960FB6F894DEBF0FBECDBFDF9165
:1005D000CF911F910F9108950F931F93CF93DF93A6
:1005E00000D000D0CDB7DEB7082F15E008C0612FCE
:1005F00081E00E942D0280E20E94D9011F5F173026
:10060000B4F365E081E00E942D024AE0BE016F5F15
:100610007F4F802F002E000C990B0E942E09075F40
:10062000033140F480E30E94D901CE0101960E947B
:10063000050204C0CE0101960E9405020F900F90A2
:100640000F900F90DF91CF911F910F9108951F93FD
:10065000CF93DF9300D000D0CDB7DEB7182F6EE078
:1006600081E00E942D024AE0BE016F5F7F4F812F23
:10067000012E000C990B0E942E09175F133140F4D4
:1006800080E30E94D901CE0101960E94050204C0B8
:10069000CE0101960E9405020F900F900F900F90CF
:1006A000DF91CF911F9108950F931F93CF938C01EA
:1006B000C7E008C06C2F82E00E942D0280E20E94F9
:1006C000D901CF5FC131B0F367E082E00E942D0213
:1006D000C8010E940502CF911F910F9108950E94B9
:1006E000AC0688B3806188BB80E80E94B90680E4CC
:1006F0000E94B90688B38F7E88BB2FE789EA93E012
:10070000215080409040E1F700C000000895CF9351
:1007100088B3806188BB81E00E94B90680E00E94B6
:10072000B90688B38F7E88BB8FEC97E00197F1F70D
:1007300000C000000E94BD06C82F88B3806188BB3E
:1007400082E00E94B90680E00E94B90688B38F7EDD
:1007500088BB8FEC97E00197F1F700C000000E9482
:10076000BD06CC1FCC27CC1F880F8C2BCF910895B2
:100770001F920F920FB60F9211242F933F934F9316
:100780005F936F937F938F939F93AF93BF93EF93F9
:10079000FF938091CF008F5F8093CF002091CF0097
:1007A0008FE4289F912D1124822F891B8695890F14
:1007B00082958695877091E3899F201911242111D4
:1007C0003FC08091CE008F5F8093CE008091CE009D
:1007D00080FD04C00E948703809364009091CE0046
:1007E0008DEC989F812D112486958695282F220FB8
:1007F000220F820F98130AC00E94F40560936000D4
:100800007093610080936200909363008091CB00AD
:10081000813049F48091CC009091CD000196909365
:10082000CD008093CC008091C500813049F4809147
:10083000C6009091C70001969093C7008093C600B0
:10084000FF91EF91BF91AF919F918F917F916F91A8
:100850005F914F913F912F910F900FBE0F901F907E
:100860001895CF93DF93CDB7DEB72A970FB6F894DC
:10087000DEBF0FBECDBF88E0E1E7F0E0DE011196FC
:1008800001900D928A95E1F71A8619860E947401EB
:100890000E946F030E9498020E9449000E94E7058F
:1008A0000E94E60660E070E0CB010E94C10611E004
:1008B0000F2EF9E1FF2EF02DE12C0E947C00883CE8
:1008C00009F0E82E23E2E212F8CF69EA70E0CE01E7
:1008D00001960E942509892B89F089EA90E00E94FF
:1008E00054038AE0E9EAF0E0DE01119601900D92EE
:1008F0008A95E1F78F2D0E94EC02E12C8091640033
:100900000E9427031123D1F3809164008F1508F40E
:100910004AC0809164008F19863010F563EB70E057
:10092000CE0101960E942509892B09F41EC183EB93
:1009300090E00E94540387E0E3EBF0E0DE011196C3
:1009400001900D928A95E1F760E070E0CB010E9482
:10095000C1061092CB001092CD001092CC0005C1C0
:100960008B30D0F06AEB70E0CE0101960E94250931
:10097000892B09F4FAC08AEB90E00E94540386E0C8
:10098000EAEBF0E0DE01119601900D928A95E1F715
:100990000E94FA0610E0E9C060E070E0CB010E941E
:1009A000C10611E0E2C0809164009F2D981B963033
:1009B00018F563EB70E0CE0101960E942509892BA2
:1009C00009F4D3C060E070E0CB010E94C10683EB64
:1009D00090E00E94540387E0E3EBF0E0DE01119623
:1009E00001900D928A95E1F71092CB001092CD0004
:1009F0001092CC0011E0B9C0963008F4B6C081E086
:100A00008093CB008091CC009091CD0089309740AD
:100A100008F08EC069EA70E0CE0101960E942509B7
:100A2000892B09F449C089EA90E00E9454038AE0C6
:100A3000E9EAF0E0DE01119601900D928A95E1F766
:100A4000809164006F2D70E0681B7109072E000C07
:100A5000880B990B0E940E0820E030E048EC52E42D
:100A60000E946B0720E030E040E251E40E949A08C7
:100A70004B015C01609160007091610080916200A7
:100A8000909163009B01AC010E94FF0620E030E0E2
:100A900040E251E40E946B079B01AC01C501B40127
:100AA0000E949A0820E030E040E251E40E946B0787
:100AB0000E94C10611E059C0809164006F2D70E062
:100AC000681B7109072E000C880B990B0E940E08F9
:100AD00020E030E048EC52E40E946B0720E030E078
:100AE00040E251E40E949A084B015C016091600071
:100AF0007091610080916200909163009B01AC0154
:100B00000E94FF0620E030E040E251E40E946B07C3
:100B10009B01AC01C501B4010E949A0820E030E0BD
:100B200040E251E40E946B070E94C10611E01DC023
:100B30006AEB70E0CE0101960E942509892BA9F08D
:100B40008AEB90E00E94540386E0EAEBF0E0DE01DD
:100B5000119601900D928A95E1F70E94FA0660E0E5
:100B600070E0CB010E94C10610E00E94E400082F53
:100B70008A3F79F0803F51F40E944F020E94FA06AA
:100B800060E070E0CB010E94C10697CE0E94EC02AB
:100B9000F02E8091C6009091C700883C910508F422
:100BA000ADCE8F2D0E94EC0280E006C0E82FF0E071
:100BB000E753FF4F10828F5F8230C0F31092C8005E
:100BC0001092C7001092C6001092C50097CE87B150
:100BD000806487B986B1806886B986B1846086B939
:100BE00086B1826086B9089586B1806486B9349BE7
:100BF000FECF86B1806186B984B165B170E0762F91
:100C00006627682B80E090E00E940C0820E030EC22
:100C10004FE754E40E946B0720E030E040EA50E4E4
:100C20000E949A080895413089F4E82FF0E0E054DA
:100C3000FF4FE081F0E0229181E090E002C0880F58
:100C4000991F6A95E2F7822B80830895E82FF0E0E0
:100C5000E054FF4FE081F0E0229181E090E002C09B
:100C6000880F991F6A95E2F7809582238083089503
:100C7000413089F4E82FF0E0E054FF4FE081F0E0EC
:100C8000208181E090E002C0880F991F6A95E2F709
:100C9000822B80830895E82FF0E0E054FF4FE0813D
:100CA000F0E0208181E090E002C0880F991F6A95F2
:100CB000E2F78095822380830895E82FF0E0E054E6
:100CC000FF4FE081F0E03297408181E090E09C01AD
:100CD000062E02C0220F331F0A94E2F7842F90E001
:100CE0008223932302C0959587956A95E2F708952C
:100CF000413089F4E82FF0E0E054FF4FE081F0E06C
:100D0000208181E090E002C0880F991F6A95E2F788
:100D1000822B80830895E82FF0E0E054FF4FE081BC
:100D2000F0E0208181E090E002C0880F991F6A9571
:100D3000E2F780958223808308956295607FE82F93
:100D4000F0E0E054FF4FE081F0E080818F7080831D
:100D50008081682B6083089587B3806B87BB87B3DE
:100D60008F7B87BB8DB181658DB98EB18E7F8EB93A
:100D700008958FB9779BFECF0895779BFECF8FB1F3
:100D8000089527B3286027BB23B7206423BF20E042
:100D900030E04FE753EC0E949A0820E030E04FE744
:100DA00053E40E94FF060E94DD076CBF83B78E7F6D
:100DB00083BF83B7826083BF83B78B7F83BF83B7D3
:100DC000806183BF83B7806283BF089585B5877FC5
:100DD00085BD85B58F7B85BD85B5816085BD85B5B4
:100DE000826085BD85B58B7F85BD789489B7806429
:100DF00089BF089589B78F7B89BF08955058BB2755
:100E0000AA270E9416070C9460080E94520838F026
:100E10000E94590820F039F49F3F19F426F40C94ED
:100E20004F080EF4E095E7FB0C944908E92F0E9467
:100E3000710858F3BA17620773078407950720F003
:100E400079F4A6F50C9493080EF4E0950B2EBA2FC6
:100E5000A02D0B01B90190010C01CA01A0011124C0
:100E6000FF27591B99F0593F50F4503E68F11A166C
:100E7000F040A22F232F342F4427585FF3CF4695FD
:100E800037952795A795F0405395C9F77EF41F161F
:100E9000BA0B620B730B840BBAF09150A1F0FF0FE9
:100EA000BB1F661F771F881FC2F70EC0BA0F621FD5
:100EB000731F841F48F4879577956795B795F795C5
:100EC0009E3F08F0B0CF9395880F08F09927EE0F5A
:100ED0009795879508950E947F070C9460080E945B
:100EE000590858F00E94520840F029F45F3F29F059
:100EF0000C94490851110C9494080C944F080E94CA
:100F0000710868F39923B1F3552391F3951B550BA1
:100F1000BB27AA2762177307840738F09F5F5F4FCC
:100F2000220F331F441FAA1FA9F335D00E2E3AF00B
:100F3000E0E832D091505040E695001CCAF72BD023
:100F4000FE2F29D0660F771F881FBB1F2617370774
:100F50004807AB07B0E809F0BB0B802DBF01FF27A6
:100F600093585F4F3AF09E3F510578F00C94490832
:100F70000C9494085F3FE4F3983ED4F386957795FC
:100F80006795B795F7959F5FC9F7880F911D96955F
:100F9000879597F90895E1E0660F771F881FBB1FBB
:100FA000621773078407BA0720F0621B730B840B68
:100FB000BA0BEE1F88F7E09508950E94790888F033
:100FC0009F5798F0B92F9927B751B0F0E1F0660F0D
:100FD000771F881F991F1AF0BA95C9F714C0B1304E
:100FE00091F00E949308B1E008950C949308672F44
:100FF000782F8827B85F39F0B93FCCF3869577957D
:101000006795B395D9F73EF4909580957095619565
:101010007F4F8F4F9F4F0895E89409C097FB3EF490
:1010200090958095709561957F4F8F4F9F4F992335
:10103000A9F0F92F96E9BB279395F69587957795B3
:101040006795B795F111F8CFFAF4BB0F11F460FF73
:101050001BC06F5F7F4F8F4F9F4F16C0882311F0CB
:1010600096E911C0772321F09EE8872F762F05C0DF
:10107000662371F096E8862F70E060E02AF09A957A
:10108000660F771F881FDAF7880F9695879597F96F
:10109000089597F99F6780E870E060E008959FEFFA
:1010A00080EC089500240A941616170618060906FF
:1010B000089500240A9412161306140605060895CE
:1010C000092E0394000C11F4882352F0BB0F40F456
:1010D000BF2B11F460FF04C06F5F7F4F8F4F9F4F96
:1010E000089557FD9058440F551F59F05F3F71F018
:1010F0004795880F97FB991F61F09F3F79F087957F
:101100000895121613061406551FF2CF4695F1DF07
:1011100008C0161617061806991FF1CF8695710597
:10112000610508940895E894BB2766277727CB01CB
:1011300097F908950E94AD080C9460080E94520827
:1011400038F00E94590820F0952311F00C944908BA
:101150000C944F0811240C9494080E94710870F3A9
:10116000959FC1F3950F50E0551F629FF001729F4C
:10117000BB27F00DB11D639FAA27F00DB11DAA1F5B
:10118000649F6627B00DA11D661F829F2227B00DA8
:10119000A11D621F739FB00DA11D621F839FA00D33
:1011A000611D221F749F3327A00D611D231F849F83
:1011B000600D211D822F762F6A2F11249F575040DA
:1011C0009AF0F1F088234AF0EE0FFF1FBB1F661F55
:1011D000771F881F91505040A9F79E3F510580F01E
:1011E0000C9449080C9494085F3FE4F3983ED4F3C0
:1011F000869577956795B795F795E7959F5FC1F7C2
:10120000FE2B880F911D9695879597F90895FC01FF
:1012100088279927E89421912032E9F3293010F0AA
:101220002E30C8F32B3241F02D3239F4689404C0CB
:101230000E943909820F911D219120532A30C0F359
:101240001EF4909581959F4F0895FB01DC018D91CF
:10125000019080190110D9F3990B0895BB274A30EA
:1012600031F4992322F4BDE2909581959F4F0C941F
:1012700042097AE0979F902D879F802D910D112430
:101280000895BB27FB015527AA27880F991FAA1F7E
:10129000A41710F0A41B83955051B9F7A05DAA3391
:1012A00008F0A95DA193009779F7B111B19311925C
:1012B000CB010C945B09DC01FC01672F7191772352
:1012C000E1F7329704C07C916D9370836291AE1701
:0A12D000BF07C8F30895F894FFCF9C
:1012DA000000A040193738393435363132332A30D4
:1012EA00235354414E4442590000000100010101B8
:1012FA0002040506075345543A2323004352543A3D
:10130A0023230053544154453A5354414E444259BD
:10131A000057454C434F4D45004F504552415449A3
:10132A004F4E004E4F524D414C004552524F5200C3
:04133A003B383532D5
:00000001FF
