:1004F900EF14602E14604C14606A24036003020533
:100509008FEB6401700DA80504088002C333D8FC81
:1005190042A422A8057401088002C333D8FCF4520E
:10052900A422EB6401700DA80504088002C333D826
:10053900FC42A522A8057401088002C333D8FCF443
:1005490052A522EB6401700DA80504088002C3338B
:10055900D8FC42A622A8057401088002C333D8FC3E
:10056900F452A622EB6401700DA80504088002C3A9
:1005790033D8FC42A722AF05A8077401088002C33B
:0705890033D8FCF452A72255
:10059000EF14602E14604C14606A2403600302069A
:1005A00026EB6401700DA80504088002C333D8FC53
:1005B000428022A8057401088002C333D8FCF4529B
:1005C0008022EB6401700DA80504088002C333D8B3
:1005D000FC429022A8057401088002C333D8FCF4C1
:1005E000529022EB6401700DA80504088002C33309
:1005F000D8FC42A022A8057401088002C333D8FCAD
:10060000F452A022EB6401700DA80504088002C317
:1006100033D8FC42B022AF05A8077401088002C39A
:0706200033D8FCF452B022B4
:10072400EF14601D14604314605324037061A80522
:100734007401088002C333D8FCFFF452A4EF428052
:1007440022A8057401088002C333D8FCFFF4FE52CA
:10075400A5EF4290EB6401700DA80504088002C364
:1007640033D8FC42BD22EE52BD22A8057401088094
:1007740002C333D8FCFFF452A6EF42A022A80574AA
:1007840001088002C333D8FCFFF452A7EF42B02221
:10043E00E4FEEF14603914605F1470030204CF24DD
:10044E000360030204F67E007401A805088005C34C
:10045E0033CE33CED8F9FFAC80ECFBE4FEEF5BA8D5
:10046E0005088006CEA2E713CE13D8F8FE80797E5B
:10047E00007401A805088005C333CE33CED8F9FF2A
:10048E00AC90ECFBE4FEEF5BA805088006CEA2E77D
:10049E0013CE13D8F8FE80507E007401A805088094
:1004AE0005C333CE33CED8F9FFACA0ECFBE4FEEFA0
:1004BE005BA805088006CEA2E713CE13D8F8FE80FF
:1004CE00277E007401A805088005C333CE33CED82D
:1004DE00F9FFACB0ECFBE4FEEF5BA805088006CE9E
:0A04EE00A2E713CE13D8F8FEAF0604
:0104F80022E1
:1008CC0053050FEF14601114601514601924037094
:1008DC001B5380F0ED4280225390F0ED4290225356
:0D08EC00A0F0ED42A02253B0F0ED42B0228A
:10089D00EDC454F0FDEF14601114601514601924AB
:1008AD0003701B53800FED42802253900FED429049
:0F08BD002253A00FED42A02253B00FED42B02204
:1007DC00EF14601714602114602B24037033ED6444
:1007EC0001700475A4FF2275A40022ED640170044D
:1007FC0075A5FF2275A50022ED6401700475A6FF96
:10080C002275A60022ED6401700475A7FF2275A75E
:02081C000022B8
:10085F00EF14601514601D1460252403702FE4FD40
:10086F00FF1207DC7DFFE48021E4FD7F011207DC2E
:10087F007DFF8016E4FD7F021207DC7DFF800BE415
:0E088F00FD7F031207DC7DFFE4FF12093A2211
:1008F900E4FEEF14600E14600F1460102403700EF0
:10090900AE80800AAE908006AEA08002AEB0AF067F
:0109190022BB
:10093A00EF14600D14600D14600D2403700B8D808C
:0A094A00228D90228DA0228DB02294
:10079400EF14601814602314602E24037039A80524
:1007A4007401088002C333D8FC628022A805740156
:1007B400088002C333D8FC629022A8057401088023
:1007C40002C333D8FC62A022AF05A80774010880D5
:0807D40002C333D8FC62B0221D
:10091A00E4FDFCD3ED9FEC9E5015E4FBFA0BBB0003
:0F092A00010AEB646E4A70F50DBD00010C80E40C
:01093900229B
:0409990043A88022CD
:07098B0043A801438801228B
:0709920043A804438804227E
:0F097C00438910E4F58DF58BD28ED2ABD2AF222A
:10096900438E04438902758CFD758AFDD28CD2A908
:03097900D2AF22D8
:10081E000C080000000000000000000000000C1496
:10082E0000000000000000000000000010223EB298
:10083E00C71D3E6ADD273E6ADD273EB2C71D103258
:10084E00BF24436A3F2655813F2655813F24436A84
:10095400E4F542F543C2A4D2A4D2A5FF1208F97566
:0509640042008F432258
:1002F300AF20EF3395E0FEEF64014E6018C2A01209
:100303000954AD437F0112093AD2A0120954AD43F7
:100313007F0302093AC2A0120954AD437F011209B7
:100323003AAC42AD43EC120206E54725E025E02452
:1003330008F81202E7D2A0120954AD437F03120951
:100343003AAC42AD43EC120206E54725E025E02432
:1003530014F81202E70547E54770020546640445B1
:1003630046600302043DF544F545AB4BAA4AA9494F
:10037300A848C000C001C002C003AF45C374039FB7
:1003830025E025E02408F81202DAC000EF25E02575
:10039300E02422F81202CED0001200FBD003D002D8
:1003A300D001D00012000A8F4B8E4A8D498C48AB86
:1003B3004FAA4EA94DA84CC000C001C002C003AF54
:1003C30045C374039F25E025E02414F81202DAC024
:1003D30000EF25E025E02432F81202CED00012000F
:1003E300FBD003D002D001D00012000A8F4F8E4EF3
:1003F3008D4D8C4C0545E545700205446404454428
:10040300600302036DAF4BAE4AAD49AC4812023FE5
:10041300AD077F0112093AAF4FAE4EAD4DAC4C1252
:10042300023FAD077F0312093AE4F54BF54AF5495C
:0B043300F548F54FF54EF54DF54C2255
:1006B30075FFDE75FFADE4FF12085F7D017F011258
:1006C30007DC7B01E4FD7F021204F97B017D017FDE
:1006D300021204F97B017D027F021204F97B017D82
:1006E300047F021204F97B017D057F021204F9E401
:1006F300FB7D067F021207247D017F031207DCC204
:10070300A0C2A1C2A2D2A57D067F0212043E8F2001
:100713001202F3E5476404454670ECF546F547805D
:01072300E6EF
:100003000202ABE86480F8E933E83360110460F07E
:10001300ED33EC337009E8FCE9FDEAFEEBFF220463
:1000230060DED3EB9FEA9EE99DE8C2E78CF0C2F75E
:1000330095F0400CE8CCF8E9CDF9EACEFAEBCFFB2A
:1000430012027685D0F05804700320D5B3E804700B
:10005300075002B2D50202B592D5EC0460F7E4CCA6
:10006300C0E0C398F8603B94186008400DD0E0FBF3
:1000730002028DE4FBFAC9FC8028E830E406E4C9F7
:10008300FBE4CAFCE830E305E4C9CACBFCE8540747
:100093006010F8C3E913F9EA13FAEB13FBEC13FC52
:1000A300D8F130F52FC3E49CFCEF9BFFEE9AFEEDF5
:1000B30099FDD0E0FBEF4E4D4C701222DB030202A0
:1000C300B2EC2CFCEF33FFEE33FEED33FDED30E706
:1000D300EB02028DEF2BFFEE3AFEED39FDD0E0FB94
:1000E30050130BBB00030202B5ED13FDEE13FEEF3D
:0800F30013FFEC13FC02028D67
:1000FB00EC4D6011E8497017ED33EC3304600DE4FF
:10010B00FCFFFEFD22E933E8330470F80202AB1268
:10011B00027658046009E4CC248150062850090269
:10012B0002B52840030202B2C0E0EB4A7044B9802A
:10013B0006D0E0FB0202A1EF4E701CBD8008EBFF66
:10014B00EAFEE9FD80EBE98DF0A4FEE5F00201E4A7
:10015B00E9CDF9EAFEEBFFEF89F0A4FCE5F0CE89DF
:10016B00F0A42EFFE435F0CD89F0A42DFEE435F09C
:10017B008067EF4E7005BD80D780C3EF8BF0A4ACCA
:10018B00F0EE8BF0A42CFCE435F0F8EF8AF0A42C05
:10019B00E5F038FCE433CB8DF0A42CFCE5F03BF818
:1001AB00EE8AF0A42CFCE5F038F8E433CF89F0A408
:1001BB002CFCE5F038CF3400CE89F0A42FFFE5F00E
:1001CB003EFEE433C98DF0A42EFEE5F039CD8AF066
:1001DB00A42FFFE5F03EFEE43DFD33D0E0FB5007DE
:1001EB000BBB000F0202B5EC2CFCEF33FFEE33FE22
:0601FB00ED33FD02028D50
:1002010075F020800E75F010800575F0087D007E78
:10021100007F003392D530D5031202C0EC33401079
:10022100EF33FFEE33FEED33FDEC33FCD5F0ED2281
:0E023100E5F0247EA2D513CC92E7CDCEFF22BD
:10023F00EDD2E7CD33EC3392D524814006E4FFFEB7
:10024F00FDFC22FCE4CFCECDCC24E0501174FF8016
:10025F00EDC3CC13CCCD13CDCE13CECF13CF0470B3
:07026F00F030D5DE0202C0F1
:10027600E9D2E7C933E833F892D5EDD2E7CD33ECCE
:0702860033FC5002B2D52247
:10028D00EC30E7100FBF000C0EBE00080DBD0004D2
:10029D000BEB6014A2D5EB13FCED92E7FD2274FF7E
:1002AD00FCFDFEFF22E480F8A2D574FF13FC7D80D7
:0302BD00E480EFEB
:03000000020627CE
:0C062700787FE4F6D8FD75814F02066E66
:0E02C000C3E49FFFE49EFEE49DFDE49CFC224F
:0C02CE00E6FC08E6FD08E6FE08E6FF225C
:0D02DA00E6FB08E6F908E6FA08E6CBF82294
:0C02E700ECF608EDF608EEF608EFF62243
:100633000206B3E493A3F8E493A34003F68001F224
:1006430008DFF48029E493A3F85407240CC8C333C8
:10065300C4540F4420C8834004F456800146F6DF97
:10066300E4800B010204081020408090081EE47E01
:10067300019360BCA3FF543F30E509541FFEE4938C
:10068300A360010ECF54C025E060A840B8E493A353
:10069300FAE493A3F8E493A3C8C582C8CAC583CA7E
:1006A300F0A3C8C582C8CAC583CADFE9DEE780BE36
:01085E000099
:00000001FF
