:1004F900EF14602E14604C14606A24036003020533
:100509008FEB6401700DA80504088002C333D8FC81
:1005190042A422A8057401088002C333D8FCF4520E
:10052900A422EB6401700DA80504088002C333D826
:10053900FC42A522A8057401088002C333D8FCF443
:1005490052A522EB6401700DA80504088002C3338B
:10055900D8FC42A622A8057401088002C333D8FC3E
:10056900F452A622EB6401700DA80504088002C3A9
:1005790033D8FC42A722AF05A8077401088002C33B
:0705890033D8FCF452A72255
:10059000EF14602E14604C14606A2403600302069A
:1005A00026EB6401700DA80504088002C333D8FC53
:1005B000428022A8057401088002C333D8FCF4529B
:1005C0008022EB6401700DA80504088002C333D8B3
:1005D000FC429022A8057401088002C333D8FCF4C1
:1005E000529022EB6401700DA80504088002C33309
:1005F000D8FC42A022A8057401088002C333D8FCAD
:10060000F452A022EB6401700DA80504088002C317
:1006100033D8FC42B022AF05A8077401088002C39A
:0706200033D8FCF452B022B4
:1006B300EF14601D14604314605324037061A80594
:1006C3007401088002C333D8FCFFF452A4EF4280C4
:1006D30022A8057401088002C333D8FCFFF4FE523C
:1006E300A5EF4290EB6401700DA80504088002C3D6
:1006F30033D8FC42BD22EE52BD22A8057401088006
:1007030002C333D8FCFFF452A6EF42A022A805741B
:1007130001088002C333D8FCFFF452A7EF42B02292
:10043E00E4FEEF14603914605F1470030204CF24DD
:10044E000360030204F67E007401A805088005C34C
:10045E0033CE33CED8F9FFAC80ECFBE4FEEF5BA8D5
:10046E0005088006CEA2E713CE13D8F8FE80797E5B
:10047E00007401A805088005C333CE33CED8F9FF2A
:10048E00AC90ECFBE4FEEF5BA805088006CEA2E77D
:10049E0013CE13D8F8FE80507E007401A805088094
:1004AE0005C333CE33CED8F9FFACA0ECFBE4FEEFA0
:1004BE005BA805088006CEA2E713CE13D8F8FE80FF
:1004CE00277E007401A805088005C333CE33CED82D
:1004DE00F9FFACB0ECFBE4FEEF5BA805088006CE9E
:0A04EE00A2E713CE13D8F8FEAF0604
:0104F80022E1
:1008C30053050FEF1460111460151460192403709D
:1008D3001B5380F0ED4280225390F0ED429022535F
:0D08E300A0F0ED42A02253B0F0ED42B02293
:10089400EDC454F0FDEF14601114601514601924B4
:1008A40003701B53800FED42802253900FED429052
:0F08B4002253A00FED42A02253B00FED42B0220D
:1007D300EF14601714602114602B24037033ED644D
:1007E30001700475A4FF2275A40022ED6401700456
:1007F30075A5FF2275A50022ED6401700475A6FF9F
:100803002275A60022ED6401700475A7FF2275A767
:020813000022C1
:10085600EF14601514601D1460252403702FE4FD49
:10086600FF1207D37DFFE48021E4FD7F011207D349
:100876007DFF8016E4FD7F021207D37DFF800BE427
:0E088600FD7F031207D37DFFE4FF120931222C
:1008F000E4FEEF14600E14600F1460102403700EF9
:10090000AE80800AAE908006AEA08002AEB0AF0688
:0109100022C4
:10093100EF14600D14600D14600D2403700B8D8095
:0A094100228D90228DA0228DB0229D
:10078B00EF14601814602314602E24037039A8052D
:10079B007401088002C333D8FC628022A80574015F
:1007AB00088002C333D8FC629022A805740108802C
:1007BB0002C333D8FC62A022AF05A80774010880DE
:0807CB0002C333D8FC62B02226
:10091100E4FDFCD3ED9FEC9E5015E4FBFA0BBB000C
:0F092100010AEB646E4A70F50DBD00010C80E415
:0109300022A4
:0409900043A88022D6
:0709820043A8014388012294
:0709890043A8044388042287
:0F097300438910E4F58DF58BD28ED2ABD2AF2233
:10096000438E04438902758CFD758AFDD28CD2A911
:03097000D2AF22E1
:100815000C080000000000000000000000000C149F
:1008250000000000000000000000000010223EB2A1
:10083500C71D3E6ADD273E6ADD273EB2C71D103261
:10084500BF24436A3F2655813F2655813F24436A8D
:10094B00E4F542F543C2A4D2A4D2A5FF1208F07578
:05095B0042008F432261
:1002F300AF20EF3395E0FEEF64014E6018C2A01209
:10030300094BAD437F01120931D2A012094BAD4312
:100313007F03020931C2A012094BAD437F011209C9
:1003230031AC42AD43EC120206E54725E025E0245B
:1003330008F81202E7D2A012094BAD437F0312095A
:1003430031AC42AD43EC120206E54725E025E0243B
:1003530014F81202E70547E54770020546640445B1
:1003630046600302043DF544F545AB4BAA4AA9494F
:10037300A848C000C001C002C003AF45C374039FB7
:1003830025E025E02408F81202DAC000EF25E02575
:10039300E02422F81202CED0001200FBD003D002D8
:1003A300D001D00012000A8F4B8E4A8D498C48AB86
:1003B3004FAA4EA94DA84CC000C001C002C003AF54
:1003C30045C374039F25E025E02414F81202DAC024
:1003D30000EF25E025E02432F81202CED00012000F
:1003E300FBD003D002D001D00012000A8F4F8E4EF3
:1003F3008D4D8C4C0545E545700205446404454428
:10040300600302036DAF4BAE4AAD49AC4812023FE5
:10041300AD077F01120931AF4FAE4EAD4DAC4C125B
:10042300023FAD077F03120931E4F54BF54AF54965
:0B043300F548F54FF54EF54DF54C2255
:1007230075FFDE75FFADE4FF1208567D017F0112F0
:1007330007D37B01E4FD7F021204F97B017D017F76
:10074300021204F97B017D027F021204F97B017D11
:10075300047F021204F97B017D057F021204F9E490
:10076300FB7D067F021206B37D017F031207D3C20E
:10077300A0C2A1C2A2D2A51202F3E5476404454672
:0807830070F5F546F54780EF23
:100003000202ABE86480F8E933E83360110460F07E
:10001300ED33EC337009E8FCE9FDEAFEEBFF220463
:1000230060DED3EB9FEA9EE99DE8C2E78CF0C2F75E
:1000330095F0400CE8CCF8E9CDF9EACEFAEBCFFB2A
:1000430012027685D0F05804700320D5B3E804700B
:10005300075002B2D50202B592D5EC0460F7E4CCA6
:10006300C0E0C398F8603B94186008400DD0E0FBF3
:1000730002028DE4FBFAC9FC8028E830E406E4C9F7
:10008300FBE4CAFCE830E305E4C9CACBFCE8540747
:100093006010F8C3E913F9EA13FAEB13FBEC13FC52
:1000A300D8F130F52FC3E49CFCEF9BFFEE9AFEEDF5
:1000B30099FDD0E0FBEF4E4D4C701222DB030202A0
:1000C300B2EC2CFCEF33FFEE33FEED33FDED30E706
:1000D300EB02028DEF2BFFEE3AFEED39FDD0E0FB94
:1000E30050130BBB00030202B5ED13FDEE13FEEF3D
:0800F30013FFEC13FC02028D67
:1000FB00EC4D6011E8497017ED33EC3304600DE4FF
:10010B00FCFFFEFD22E933E8330470F80202AB1268
:10011B00027658046009E4CC248150062850090269
:10012B0002B52840030202B2C0E0EB4A7044B9802A
:10013B0006D0E0FB0202A1EF4E701CBD8008EBFF66
:10014B00EAFEE9FD80EBE98DF0A4FEE5F00201E4A7
:10015B00E9CDF9EAFEEBFFEF89F0A4FCE5F0CE89DF
:10016B00F0A42EFFE435F0CD89F0A42DFEE435F09C
:10017B008067EF4E7005BD80D780C3EF8BF0A4ACCA
:10018B00F0EE8BF0A42CFCE435F0F8EF8AF0A42C05
:10019B00E5F038FCE433CB8DF0A42CFCE5F03BF818
:1001AB00EE8AF0A42CFCE5F038F8E433CF89F0A408
:1001BB002CFCE5F038CF3400CE89F0A42FFFE5F00E
:1001CB003EFEE433C98DF0A42EFEE5F039CD8AF066
:1001DB00A42FFFE5F03EFEE43DFD33D0E0FB5007DE
:1001EB000BBB000F0202B5EC2CFCEF33FFEE33FE22
:0601FB00ED33FD02028D50
:1002010075F020800E75F010800575F0087D007E78
:10021100007F003392D530D5031202C0EC33401079
:10022100EF33FFEE33FEED33FDEC33FCD5F0ED2281
:0E023100E5F0247EA2D513CC92E7CDCEFF22BD
:10023F00EDD2E7CD33EC3392D524814006E4FFFEB7
:10024F00FDFC22FCE4CFCECDCC24E0501174FF8016
:10025F00EDC3CC13CCCD13CDCE13CECF13CF0470B3
:07026F00F030D5DE0202C0F1
:10027600E9D2E7C933E833F892D5EDD2E7CD33ECCE
:0702860033FC5002B2D52247
:10028D00EC30E7100FBF000C0EBE00080DBD0004D2
:10029D000BEB6014A2D5EB13FCED92E7FD2274FF7E
:1002AD00FCFDFEFF22E480F8A2D574FF13FC7D80D7
:0302BD00E480EFEB
:03000000020627CE
:0C062700787FE4F6D8FD75814F02066E66
:0E02C000C3E49FFFE49EFEE49DFDE49CFC224F
:0C02CE00E6FC08E6FD08E6FE08E6FF225C
:0D02DA00E6FB08E6F908E6FA08E6CBF82294
:0C02E700ECF608EDF608EEF608EFF62243
:10063300020723E493A3F8E493A34003F68001F2B3
:1006430008DFF48029E493A3F85407240CC8C333C8
:10065300C4540F4420C8834004F456800146F6DF97
:10066300E4800B0102040810204080900815E47E0A
:10067300019360BCA3FF543F30E509541FFEE4938C
:10068300A360010ECF54C025E060A840B8E493A353
:10069300FAE493A3F8E493A3C8C582C8CAC583CA7E
:1006A300F0A3C8C582C8CAC583CADFE9DEE780BE36
:0108550000A2
:00000001FF
